{
  "_format": "hh-sol-artifact-1",
  "contractName": "merkleRoot",
  "sourceName": "contracts/merkleRoot.sol",
  "abi": [
    {
      "inputs": [
        {
          "internalType": "address",
          "name": "_token",
          "type": "address"
        },
        {
          "internalType": "bytes32",
          "name": "_merkleRoot",
          "type": "bytes32"
        }
      ],
      "stateMutability": "nonpayable",
      "type": "constructor"
    },
    {
      "anonymous": false,
      "inputs": [
        {
          "indexed": true,
          "internalType": "address",
          "name": "account",
          "type": "address"
        },
        {
          "indexed": false,
          "internalType": "uint256",
          "name": "amount",
          "type": "uint256"
        }
      ],
      "name": "AirdropClaimed",
      "type": "event"
    },
    {
      "anonymous": false,
      "inputs": [
        {
          "indexed": false,
          "internalType": "bytes32",
          "name": "newMerkleRoot",
          "type": "bytes32"
        }
      ],
      "name": "MerkleRootUpdated",
      "type": "event"
    },
    {
      "inputs": [
        {
          "internalType": "uint256",
          "name": "amount",
          "type": "uint256"
        },
        {
          "internalType": "bytes32[]",
          "name": "merkleProof",
          "type": "bytes32[]"
        }
      ],
      "name": "claim",
      "outputs": [],
      "stateMutability": "nonpayable",
      "type": "function"
    },
    {
      "inputs": [
        {
          "internalType": "address",
          "name": "",
          "type": "address"
        }
      ],
      "name": "hasClaimed",
      "outputs": [
        {
          "internalType": "bool",
          "name": "",
          "type": "bool"
        }
      ],
      "stateMutability": "view",
      "type": "function"
    },
    {
      "inputs": [],
      "name": "merkleRoot",
      "outputs": [
        {
          "internalType": "bytes32",
          "name": "",
          "type": "bytes32"
        }
      ],
      "stateMutability": "view",
      "type": "function"
    },
    {
      "inputs": [],
      "name": "token",
      "outputs": [
        {
          "internalType": "contract IERC20",
          "name": "",
          "type": "address"
        }
      ],
      "stateMutability": "view",
      "type": "function"
    },
    {
      "inputs": [
        {
          "internalType": "bytes32",
          "name": "_newMerkleRoot",
          "type": "bytes32"
        }
      ],
      "name": "updateMerkleRoot",
      "outputs": [],
      "stateMutability": "nonpayable",
      "type": "function"
    },
    {
      "inputs": [
        {
          "internalType": "address",
          "name": "to",
          "type": "address"
        }
      ],
      "name": "withdrawRemainingTokens",
      "outputs": [],
      "stateMutability": "nonpayable",
      "type": "function"
    }
  ],
  "bytecode": "0x60806040523480156200001157600080fd5b50604051620010543803806200105483398181016040528101906200003791906200016c565b33600260006101000a81548173ffffffffffffffffffffffffffffffffffffffff021916908373ffffffffffffffffffffffffffffffffffffffff160217905550816000806101000a81548173ffffffffffffffffffffffffffffffffffffffff021916908373ffffffffffffffffffffffffffffffffffffffff160217905550806001819055505050620001b3565b600080fd5b600073ffffffffffffffffffffffffffffffffffffffff82169050919050565b6000620000f982620000cc565b9050919050565b6200010b81620000ec565b81146200011757600080fd5b50565b6000815190506200012b8162000100565b92915050565b6000819050919050565b620001468162000131565b81146200015257600080fd5b50565b60008151905062000166816200013b565b92915050565b60008060408385031215620001865762000185620000c7565b5b600062000196858286016200011a565b9250506020620001a98582860162000155565b9150509250929050565b610e9180620001c36000396000f3fe608060405234801561001057600080fd5b50600436106100625760003560e01c80632eb4a7ab146100675780632f52ebb7146100855780634783f0ef146100a15780635affbd97146100bd57806373b2e80e146100d9578063fc0c546a14610109575b600080fd5b61006f610127565b60405161007c91906107e4565b60405180910390f35b61009f600480360381019061009a91906108a4565b61012d565b005b6100bb60048036038101906100b69190610930565b6103fd565b005b6100d760048036038101906100d291906109bb565b6104ce565b005b6100f360048036038101906100ee91906109bb565b6106de565b6040516101009190610a03565b60405180910390f35b6101116106fe565b60405161011e9190610a7d565b60405180910390f35b60015481565b600360003373ffffffffffffffffffffffffffffffffffffffff1673ffffffffffffffffffffffffffffffffffffffff16815260200190815260200160002060009054906101000a900460ff16156101ba576040517f08c379a00000000000000000000000000000000000000000000000000000000081526004016101b190610af5565b60405180910390fd5b600033846040516020016101cf929190610b7e565b604051602081830303815290604052805190602001209050610235838380806020026020016040519081016040528093929190818152602001838360200280828437600081840152601f19601f8201169050808301925050505050505060015483610722565b610274576040517f08c379a000000000000000000000000000000000000000000000000000000000815260040161026b90610bf6565b60405180910390fd5b6001600360003373ffffffffffffffffffffffffffffffffffffffff1673ffffffffffffffffffffffffffffffffffffffff16815260200190815260200160002060006101000a81548160ff02191690831515021790555060008054906101000a900473ffffffffffffffffffffffffffffffffffffffff1673ffffffffffffffffffffffffffffffffffffffff1663a9059cbb33866040518363ffffffff1660e01b8152600401610327929190610c34565b6020604051808303816000875af1158015610346573d6000803e3d6000fd5b505050506040513d601f19601f8201168201806040525081019061036a9190610c89565b6103a9576040517f08c379a00000000000000000000000000000000000000000000000000000000081526004016103a090610d02565b60405180910390fd5b3373ffffffffffffffffffffffffffffffffffffffff167f650e45f04ef8a0c267b2f78d983913f69ae3a353b2b32de5429307522be0ab55856040516103ef9190610d22565b60405180910390a250505050565b600260009054906101000a900473ffffffffffffffffffffffffffffffffffffffff1673ffffffffffffffffffffffffffffffffffffffff163373ffffffffffffffffffffffffffffffffffffffff161461048d576040517f08c379a000000000000000000000000000000000000000000000000000000000815260040161048490610daf565b60405180910390fd5b806001819055507f90004c04698bc3322499a575ed3752dd4abf33e0a7294c06a787a0fe01bea941816040516104c391906107e4565b60405180910390a150565b600260009054906101000a900473ffffffffffffffffffffffffffffffffffffffff1673ffffffffffffffffffffffffffffffffffffffff163373ffffffffffffffffffffffffffffffffffffffff161461055e576040517f08c379a000000000000000000000000000000000000000000000000000000000815260040161055590610daf565b60405180910390fd5b60008060009054906101000a900473ffffffffffffffffffffffffffffffffffffffff1673ffffffffffffffffffffffffffffffffffffffff166370a08231306040518263ffffffff1660e01b81526004016105ba9190610dcf565b602060405180830381865afa1580156105d7573d6000803e3d6000fd5b505050506040513d601f19601f820116820180604052508101906105fb9190610dff565b905060008054906101000a900473ffffffffffffffffffffffffffffffffffffffff1673ffffffffffffffffffffffffffffffffffffffff1663a9059cbb83836040518363ffffffff1660e01b8152600401610658929190610c34565b6020604051808303816000875af1158015610677573d6000803e3d6000fd5b505050506040513d601f19601f8201168201806040525081019061069b9190610c89565b6106da576040517f08c379a00000000000000000000000000000000000000000000000000000000081526004016106d190610d02565b60405180910390fd5b5050565b60036020528060005260406000206000915054906101000a900460ff1681565b60008054906101000a900473ffffffffffffffffffffffffffffffffffffffff1681565b60008261072f8584610739565b1490509392505050565b60008082905060005b845181101561077e5761076f8286838151811061076257610761610e2c565b5b6020026020010151610789565b91508080600101915050610742565b508091505092915050565b60008183106107a15761079c82846107b4565b6107ac565b6107ab83836107b4565b5b905092915050565b600082600052816020526040600020905092915050565b6000819050919050565b6107de816107cb565b82525050565b60006020820190506107f960008301846107d5565b92915050565b600080fd5b600080fd5b6000819050919050565b61081c81610809565b811461082757600080fd5b50565b60008135905061083981610813565b92915050565b600080fd5b600080fd5b600080fd5b60008083601f8401126108645761086361083f565b5b8235905067ffffffffffffffff81111561088157610880610844565b5b60208301915083602082028301111561089d5761089c610849565b5b9250929050565b6000806000604084860312156108bd576108bc6107ff565b5b60006108cb8682870161082a565b935050602084013567ffffffffffffffff8111156108ec576108eb610804565b5b6108f88682870161084e565b92509250509250925092565b61090d816107cb565b811461091857600080fd5b50565b60008135905061092a81610904565b92915050565b600060208284031215610946576109456107ff565b5b60006109548482850161091b565b91505092915050565b600073ffffffffffffffffffffffffffffffffffffffff82169050919050565b60006109888261095d565b9050919050565b6109988161097d565b81146109a357600080fd5b50565b6000813590506109b58161098f565b92915050565b6000602082840312156109d1576109d06107ff565b5b60006109df848285016109a6565b91505092915050565b60008115159050919050565b6109fd816109e8565b82525050565b6000602082019050610a1860008301846109f4565b92915050565b6000819050919050565b6000610a43610a3e610a398461095d565b610a1e565b61095d565b9050919050565b6000610a5582610a28565b9050919050565b6000610a6782610a4a565b9050919050565b610a7781610a5c565b82525050565b6000602082019050610a926000830184610a6e565b92915050565b600082825260208201905092915050565b7f41697264726f7020616c726561647920636c61696d6564000000000000000000600082015250565b6000610adf601783610a98565b9150610aea82610aa9565b602082019050919050565b60006020820190508181036000830152610b0e81610ad2565b9050919050565b60008160601b9050919050565b6000610b2d82610b15565b9050919050565b6000610b3f82610b22565b9050919050565b610b57610b528261097d565b610b34565b82525050565b6000819050919050565b610b78610b7382610809565b610b5d565b82525050565b6000610b8a8285610b46565b601482019150610b9a8284610b67565b6020820191508190509392505050565b7f496e76616c6964206d65726b6c652070726f6f66000000000000000000000000600082015250565b6000610be0601483610a98565b9150610beb82610baa565b602082019050919050565b60006020820190508181036000830152610c0f81610bd3565b9050919050565b610c1f8161097d565b82525050565b610c2e81610809565b82525050565b6000604082019050610c496000830185610c16565b610c566020830184610c25565b9392505050565b610c66816109e8565b8114610c7157600080fd5b50565b600081519050610c8381610c5d565b92915050565b600060208284031215610c9f57610c9e6107ff565b5b6000610cad84828501610c74565b91505092915050565b7f546f6b656e207472616e73666572206661696c65640000000000000000000000600082015250565b6000610cec601583610a98565b9150610cf782610cb6565b602082019050919050565b60006020820190508181036000830152610d1b81610cdf565b9050919050565b6000602082019050610d376000830184610c25565b92915050565b7f4f6e6c7920746865206f776e65722063616e2063616c6c20746869732066756e60008201527f6374696f6e000000000000000000000000000000000000000000000000000000602082015250565b6000610d99602583610a98565b9150610da482610d3d565b604082019050919050565b60006020820190508181036000830152610dc881610d8c565b9050919050565b6000602082019050610de46000830184610c16565b92915050565b600081519050610df981610813565b92915050565b600060208284031215610e1557610e146107ff565b5b6000610e2384828501610dea565b91505092915050565b7f4e487b7100000000000000000000000000000000000000000000000000000000600052603260045260246000fdfea2646970667358221220bfa9c099ffe5b8b4e96b8b99257dc94b6b7168b8c8b2b5189f00cd1e92cbe51164736f6c63430008180033",
  "linkReferences": {},
  "deployedLinkReferences": {}
}